{
  "contractName": "Paris",
  "abi": [
    {
      "inputs": [],
      "payable": false,
      "stateMutability": "nonpayable",
      "type": "constructor"
    },
    {
      "anonymous": false,
      "inputs": [
        {
          "indexed": true,
          "name": "_from",
          "type": "address"
        },
        {
          "indexed": true,
          "name": "_to",
          "type": "address"
        },
        {
          "indexed": false,
          "name": "_value",
          "type": "uint256"
        }
      ],
      "name": "Transfer",
      "type": "event"
    },
    {
      "constant": false,
      "inputs": [
        {
          "name": "receiver",
          "type": "address"
        },
        {
          "name": "amount",
          "type": "uint256"
        }
      ],
      "name": "sendCoin",
      "outputs": [
        {
          "name": "sufficient",
          "type": "bool"
        }
      ],
      "payable": false,
      "stateMutability": "nonpayable",
      "type": "function"
    },
    {
      "constant": true,
      "inputs": [
        {
          "name": "addr",
          "type": "address"
        }
      ],
      "name": "getBalanceInEth",
      "outputs": [
        {
          "name": "",
          "type": "uint256"
        }
      ],
      "payable": false,
      "stateMutability": "view",
      "type": "function"
    },
    {
      "constant": true,
      "inputs": [
        {
          "name": "addr",
          "type": "address"
        }
      ],
      "name": "getBalance",
      "outputs": [
        {
          "name": "",
          "type": "uint256"
        }
      ],
      "payable": false,
      "stateMutability": "view",
      "type": "function"
    }
  ],
  "bytecode": "0x608060405234801561001057600080fd5b506127106000803273ffffffffffffffffffffffffffffffffffffffff1673ffffffffffffffffffffffffffffffffffffffff168152602001908152602001600020819055506103cd806100656000396000f3fe608060405234801561001057600080fd5b50600436106100415760003560e01c80637bd703e81461004657806390b98a111461009e578063f8b2cb4f14610104575b600080fd5b6100886004803603602081101561005c57600080fd5b81019080803573ffffffffffffffffffffffffffffffffffffffff16906020019092919050505061015c565b6040518082815260200191505060405180910390f35b6100ea600480360360408110156100b457600080fd5b81019080803573ffffffffffffffffffffffffffffffffffffffff16906020019092919080359060200190929190505050610200565b604051808215151515815260200191505060405180910390f35b6101466004803603602081101561011a57600080fd5b81019080803573ffffffffffffffffffffffffffffffffffffffff169060200190929190505050610359565b6040518082815260200191505060405180910390f35b600073__ConvertLib____________________________6396e4ee3d61018184610359565b60026040518363ffffffff1660e01b8152600401808381526020018281526020019250505060206040518083038186803b1580156101be57600080fd5b505af41580156101d2573d6000803e3d6000fd5b505050506040513d60208110156101e857600080fd5b81019080805190602001909291905050509050919050565b6000816000803373ffffffffffffffffffffffffffffffffffffffff1673ffffffffffffffffffffffffffffffffffffffff1681526020019081526020016000205410156102515760009050610353565b816000803373ffffffffffffffffffffffffffffffffffffffff1673ffffffffffffffffffffffffffffffffffffffff16815260200190815260200160002060008282540392505081905550816000808573ffffffffffffffffffffffffffffffffffffffff1673ffffffffffffffffffffffffffffffffffffffff168152602001908152602001600020600082825401925050819055508273ffffffffffffffffffffffffffffffffffffffff163373ffffffffffffffffffffffffffffffffffffffff167fddf252ad1be2c89b69c2b068fc378daa952ba7f163c4a11628f55a4df523b3ef846040518082815260200191505060405180910390a3600190505b92915050565b60008060008373ffffffffffffffffffffffffffffffffffffffff1673ffffffffffffffffffffffffffffffffffffffff16815260200190815260200160002054905091905056fea165627a7a72305820d256e561a50b3dcdd606f9aa46eb05d27f37f9a7c76a2a769d086ac8931818730029",
  "source": "pragma solidity >=0.4.25 <0.6.0;\r\n\r\nimport \"./ConvertLib.sol\";\r\n\r\ncontract Paris{\r\n\r\n    mapping (address => uint) balances;\r\n\r\n    event Transfer(address indexed _from, address indexed _to, uint256 _value);\r\n\r\n    constructor() public {\r\n        balances[tx.origin] = 10000;\r\n    }\r\n\r\n    function sendCoin(address receiver, uint amount) public returns(bool sufficient) {\r\n        if (balances[msg.sender] < amount) return false;\r\n        balances[msg.sender] -= amount;\r\n        balances[receiver] += amount;\r\n        emit Transfer(msg.sender, receiver, amount);\r\n        return true;\r\n    }\r\n    //testCommit\r\n    function getBalanceInEth(address addr) public view returns(uint){\r\n        return ConvertLib.convert(getBalance(addr),2);\r\n    }\r\n\r\n    function getBalance(address addr) public view returns(uint) {\r\n        return balances[addr];\r\n    }\r\n}\r\n",
  "sourcePath": "C:/Users/melan/Documents/Projects_Truffle/WikinomiePari2019/MetaCoinPari/contracts/Paris.sol",
  "compiler": {
    "name": "solc",
    "version": "0.5.8+commit.23d335f2.Emscripten.clang"
  },
  "schemaVersion": "3.0.10",
  "updatedAt": "2019-06-06T09:04:42.901Z",
  "devdoc": {
    "methods": {}
  },
  "userdoc": {
    "methods": {}
  }
}