{
  "contractName": "Paris",
  "abi": [
    {
      "constant": true,
      "inputs": [],
      "name": "numberOfBets",
      "outputs": [
        {
          "name": "",
          "type": "uint256"
        }
      ],
      "payable": false,
      "stateMutability": "view",
      "type": "function"
    },
    {
      "constant": true,
      "inputs": [
        {
          "name": "",
          "type": "address"
        }
      ],
      "name": "playerInfo",
      "outputs": [
        {
          "name": "amountBet",
          "type": "uint256"
        },
        {
          "name": "teamSelected",
          "type": "uint16"
        }
      ],
      "payable": false,
      "stateMutability": "view",
      "type": "function"
    },
    {
      "constant": true,
      "inputs": [
        {
          "name": "",
          "type": "uint256"
        }
      ],
      "name": "parieurs",
      "outputs": [
        {
          "name": "",
          "type": "address"
        }
      ],
      "payable": false,
      "stateMutability": "view",
      "type": "function"
    },
    {
      "constant": true,
      "inputs": [],
      "name": "totalBetOne",
      "outputs": [
        {
          "name": "",
          "type": "uint256"
        }
      ],
      "payable": false,
      "stateMutability": "view",
      "type": "function"
    },
    {
      "constant": true,
      "inputs": [],
      "name": "totalBetTwo",
      "outputs": [
        {
          "name": "",
          "type": "uint256"
        }
      ],
      "payable": false,
      "stateMutability": "view",
      "type": "function"
    },
    {
      "constant": true,
      "inputs": [],
      "name": "minimumBet",
      "outputs": [
        {
          "name": "",
          "type": "uint256"
        }
      ],
      "payable": false,
      "stateMutability": "view",
      "type": "function"
    },
    {
      "constant": true,
      "inputs": [],
      "name": "maxAmountOfBets",
      "outputs": [
        {
          "name": "",
          "type": "uint256"
        }
      ],
      "payable": false,
      "stateMutability": "view",
      "type": "function"
    },
    {
      "inputs": [],
      "payable": false,
      "stateMutability": "nonpayable",
      "type": "constructor"
    },
    {
      "constant": true,
      "inputs": [
        {
          "name": "parieur",
          "type": "address"
        }
      ],
      "name": "checkParieurExists",
      "outputs": [
        {
          "name": "",
          "type": "bool"
        }
      ],
      "payable": false,
      "stateMutability": "view",
      "type": "function"
    },
    {
      "constant": false,
      "inputs": [
        {
          "name": "_teamSelected",
          "type": "uint8"
        }
      ],
      "name": "makeBet",
      "outputs": [],
      "payable": true,
      "stateMutability": "payable",
      "type": "function"
    },
    {
      "constant": false,
      "inputs": [
        {
          "name": "teamWinner",
          "type": "uint16"
        }
      ],
      "name": "distributePrizes",
      "outputs": [],
      "payable": false,
      "stateMutability": "nonpayable",
      "type": "function"
    },
    {
      "constant": true,
      "inputs": [],
      "name": "AmountOne",
      "outputs": [
        {
          "name": "",
          "type": "uint256"
        }
      ],
      "payable": false,
      "stateMutability": "view",
      "type": "function"
    },
    {
      "constant": true,
      "inputs": [],
      "name": "AmountTwo",
      "outputs": [
        {
          "name": "",
          "type": "uint256"
        }
      ],
      "payable": false,
      "stateMutability": "view",
      "type": "function"
    }
  ],
  "bytecode": "0x60806040526103e860045534801561001657600080fd5b50655af3107a4000600081905550610a22806100336000396000f3fe6080604052600436106100ba576000357c0100000000000000000000000000000000000000000000000000000000900463ffffffff168063043336bf146100bf5780632ca8c6d3146100f05780633e68110d1461011b5780634996d51d146101845780634b114691146101af578063526c9c8314610223578063657335921461029e5780637863117e146102c95780637904f688146102f4578063c2b5a50414610333578063c38a8afd1461035e578063e08a96cd14610389575b600080fd5b6100ee600480360360208110156100d557600080fd5b81019080803560ff1690602001909291905050506103b4565b005b3480156100fc57600080fd5b5061010561051c565b6040518082815260200191505060405180910390f35b34801561012757600080fd5b5061016a6004803603602081101561013e57600080fd5b81019080803573ffffffffffffffffffffffffffffffffffffffff169060200190929190505050610522565b604051808215151515815260200191505060405180910390f35b34801561019057600080fd5b506101996105c6565b6040518082815260200191505060405180910390f35b3480156101bb57600080fd5b506101fe600480360360208110156101d257600080fd5b81019080803573ffffffffffffffffffffffffffffffffffffffff1690602001909291905050506105d0565b604051808381526020018261ffff1661ffff1681526020019250505060405180910390f35b34801561022f57600080fd5b5061025c6004803603602081101561024657600080fd5b8101908080359060200190929190505050610602565b604051808273ffffffffffffffffffffffffffffffffffffffff1673ffffffffffffffffffffffffffffffffffffffff16815260200191505060405180910390f35b3480156102aa57600080fd5b506102b3610640565b6040518082815260200191505060405180910390f35b3480156102d557600080fd5b506102de61064a565b6040518082815260200191505060405180910390f35b34801561030057600080fd5b506103316004803603602081101561031757600080fd5b81019080803561ffff169060200190929190505050610650565b005b34801561033f57600080fd5b5061034861096e565b6040518082815260200191505060405180910390f35b34801561036a57600080fd5b50610373610974565b6040518082815260200191505060405180910390f35b34801561039557600080fd5b5061039e61097a565b6040518082815260200191505060405180910390f35b6103bd33610522565b1515156103c957600080fd5b60005434101515156103da57600080fd5b34600660003373ffffffffffffffffffffffffffffffffffffffff1673ffffffffffffffffffffffffffffffffffffffff168152602001908152602001600020600001819055508060ff16600660003373ffffffffffffffffffffffffffffffffffffffff1673ffffffffffffffffffffffffffffffffffffffff16815260200190815260200160002060010160006101000a81548161ffff021916908361ffff16021790555060053390806001815401808255809150509060018203906000526020600020016000909192909190916101000a81548173ffffffffffffffffffffffffffffffffffffffff021916908373ffffffffffffffffffffffffffffffffffffffff1602179055505060018160ff1614156105085734600160008282540192505081905550610519565b346002600082825401925050819055505b50565b60035481565b600080600090505b6005805490508110156105bb578273ffffffffffffffffffffffffffffffffffffffff1660058281548110151561055d57fe5b9060005260206000200160009054906101000a900473ffffffffffffffffffffffffffffffffffffffff1673ffffffffffffffffffffffffffffffffffffffff1614156105ae5760019150506105c1565b808060010191505061052a565b50600090505b919050565b6000600154905090565b60066020528060005260406000206000915090508060000154908060010160009054906101000a900461ffff16905082565b60058181548110151561061157fe5b906000526020600020016000915054906101000a900473ffffffffffffffffffffffffffffffffffffffff1681565b6000600254905090565b60015481565b610658610980565b600080905060008090506000809050600080600080600090505b6005805490508110156107785760058181548110151561068e57fe5b9060005260206000200160009054906101000a900473ffffffffffffffffffffffffffffffffffffffff1691508861ffff16600660008473ffffffffffffffffffffffffffffffffffffffff1673ffffffffffffffffffffffffffffffffffffffff16815260200190815260200160002060010160009054906101000a900461ffff1661ffff16141561076b578188886103e88110151561072b57fe5b602002019073ffffffffffffffffffffffffffffffffffffffff16908173ffffffffffffffffffffffffffffffffffffffff168152505086806001019750505b8080600101915050610672565b5060018861ffff16141561079557600254945060015493506107a0565b600154945060025493505b60008090505b868110156108dc57600073ffffffffffffffffffffffffffffffffffffffff1688826103e8811015156107d557fe5b602002015173ffffffffffffffffffffffffffffffffffffffff1614151561080e5787816103e88110151561080657fe5b602002015193505b600660008573ffffffffffffffffffffffffffffffffffffffff1673ffffffffffffffffffffffffffffffffffffffff16815260200190815260200160002060000154925087816103e88110151561086257fe5b602002015173ffffffffffffffffffffffffffffffffffffffff166108fc612710876127108a0281151561089257fe5b046127100186028115156108a257fe5b049081150290604051600060405180830381858888f193505050501580156108ce573d6000803e3d6000fd5b5080806001019150506107a6565b50600660008273ffffffffffffffffffffffffffffffffffffffff1673ffffffffffffffffffffffffffffffffffffffff1681526020019081526020016000206000808201600090556001820160006101000a81549061ffff02191690555050600060058161094b91906109a5565b506000945060009350600060018190555060006002819055505050505050505050565b60025481565b60005481565b60045481565b617d00604051908101604052806103e890602082028038833980820191505090505090565b8154818355818111156109cc578183600052602060002091820191016109cb91906109d1565b5b505050565b6109f391905b808211156109ef5760008160009055506001016109d7565b5090565b9056fea165627a7a723058205a2981f496498c998cf775feb739d4a4ded4307e8423eb5c4caa2f792894e1320029",
  "source": "pragma solidity >=0.4.25 <0.6.0;\r\n\r\nimport \"./ConvertLib.sol\";\r\n\r\ncontract Paris{\r\n\r\n    uint256 public minimumBet;\r\n    uint256 public totalBetOne;\r\n    uint256 public totalBetTwo;\r\n    uint256 public numberOfBets;\r\n    uint256 public maxAmountOfBets = 1000;\r\n\r\n    address payable[] public parieurs;\r\n\r\n    struct Parieur {\r\n        uint256 amountBet;\r\n        uint16 teamSelected;\r\n    }\r\n//    mapping (address => uint) balances;\r\n    // Address of the player and => the user info\r\n    mapping(address => Parieur) public playerInfo;\r\n\r\n    constructor() public {\r\n        minimumBet = 100000000000000;\r\n    }\r\n\r\n    function checkParieurExists(address parieur) public view returns(bool){\r\n        for(uint256 i = 0; i < parieurs.length; i++){\r\n            if(parieurs[i] == parieur) return true;\r\n        }\r\n        return false;\r\n    }\r\n\r\n    function makeBet(uint8 _teamSelected) public payable {\r\n        //The first require is used to check if the player already exist\r\n        require(!checkParieurExists(msg.sender));\r\n        //The second one is used to see if the value sended by the player is\r\n        //Higher than the minum value\r\n        require(msg.value >= minimumBet);\r\n\r\n        //We set the player informations : amount of the bet and selected team\r\n        playerInfo[msg.sender].amountBet = msg.value;\r\n        playerInfo[msg.sender].teamSelected = _teamSelected;\r\n\r\n        //then we add the address of the player to the players array\r\n        parieurs.push(msg.sender);\r\n\r\n        //at the end, we increment the stakes of the team selected with the player bet\r\n        if ( _teamSelected == 1){\r\n            totalBetOne += msg.value;\r\n        }\r\n        else{\r\n            totalBetTwo += msg.value;\r\n        }\r\n    }\r\n\r\n    function distributePrizes(uint16 teamWinner) public {\r\n        address payable[1000] memory winners;\r\n        //We have to create a temporary in memory array with fixed size\r\n        //Let's choose 1000\r\n        uint256 count = 0; // This is the count for the array of winners\r\n        uint256 LoserBet = 0; //This will take the value of all losers bet\r\n        uint256 WinnerBet = 0; //This will take the value of all winners bet\r\n        address add;\r\n        uint256 bet;\r\n        address payable playerAddress;\r\n        //We loop through the player array to check who selected the winner team\r\n        for(uint256 i = 0; i < parieurs.length; i++){\r\n            playerAddress = parieurs[i];\r\n            //If the player selected the winner team\r\n            //We add his address to the winners array\r\n            if(playerInfo[playerAddress].teamSelected == teamWinner){\r\n                winners[count] = playerAddress;\r\n                count++;\r\n            }\r\n        }\r\n        //We define which bet sum is the Loser one and which one is the winner\r\n        if ( teamWinner == 1){\r\n            LoserBet = totalBetTwo;\r\n            WinnerBet = totalBetOne;\r\n        }\r\n        else{\r\n            LoserBet = totalBetOne;\r\n            WinnerBet = totalBetTwo;\r\n        }\r\n        //We loop through the array of winners, to give ethers to the winners\r\n        for(uint256 j = 0; j < count; j++){\r\n            // Check that the address in this fixed array is not empty\r\n            if(winners[j] != address(0))\r\n                add = winners[j];\r\n            bet = playerInfo[add].amountBet;\r\n            //Transfer the money to the user\r\n            winners[j].transfer((bet*(10000+(LoserBet*10000/WinnerBet)))/10000 );\r\n        }\r\n\r\n        delete playerInfo[playerAddress]; // Delete all the players\r\n        parieurs.length = 0; // Delete all the players array\r\n        LoserBet = 0; //reinitialize the bets\r\n        WinnerBet = 0;\r\n        totalBetOne = 0;\r\n        totalBetTwo = 0;\r\n    }\r\n\r\n    function AmountOne() public view returns(uint256){\r\n        return totalBetOne;\r\n    }\r\n\r\n    function AmountTwo() public view returns(uint256){\r\n        return totalBetTwo;\r\n    }\r\n//\r\n//    event Transfer(address indexed _from, address indexed _to, uint256 _value);\r\n//\r\n//\r\n//    constructor() public {\r\n//        balances[tx.origin] = 10000;\r\n//    }\r\n//\r\n//    function sendCoin(address receiver, uint amount) public returns(bool sufficient) {\r\n//        if (balances[msg.sender] < amount) return false;\r\n//        balances[msg.sender] -= amount;\r\n//        balances[receiver] += amount;\r\n//        emit Transfer(msg.sender, receiver, amount);\r\n//        return true;\r\n//    }\r\n//    //testCommit\r\n//    function getBalanceInEth(address addr) public view returns(uint){\r\n//        return ConvertLib.convert(getBalance(addr),2);\r\n//    }\r\n//\r\n//    function getBalance(address addr) public view returns(uint) {\r\n//        return balances[addr];\r\n//    }\r\n}\r\n",
  "sourcePath": "C:/Users/colom/Desktop/Metaparis/metacoinPari/contracts/Paris.sol",
  "compiler": {
    "name": "solc",
    "version": "0.5.0+commit.1d4f565a.Emscripten.clang"
  },
  "schemaVersion": "3.0.9",
  "updatedAt": "2019-06-07T09:21:11.441Z",
  "devdoc": {
    "methods": {}
  },
  "userdoc": {
    "methods": {}
  }
}