{
  "contractName": "Paris",
  "abi": [
    {
      "constant": true,
      "inputs": [],
      "name": "numberOfBets",
      "outputs": [
        {
          "name": "",
          "type": "uint256"
        }
      ],
      "payable": false,
      "stateMutability": "view",
      "type": "function"
    },
    {
      "constant": true,
      "inputs": [
        {
          "name": "",
          "type": "address"
        }
      ],
      "name": "playerInfo",
      "outputs": [
        {
          "name": "amountBet",
          "type": "uint256"
        },
        {
          "name": "teamSelected",
          "type": "uint16"
        }
      ],
      "payable": false,
      "stateMutability": "view",
      "type": "function"
    },
    {
      "constant": true,
      "inputs": [],
      "name": "totalBetOne",
      "outputs": [
        {
          "name": "",
          "type": "uint256"
        }
      ],
      "payable": false,
      "stateMutability": "view",
      "type": "function"
    },
    {
      "constant": true,
      "inputs": [],
      "name": "totalBetTwo",
      "outputs": [
        {
          "name": "",
          "type": "uint256"
        }
      ],
      "payable": false,
      "stateMutability": "view",
      "type": "function"
    },
    {
      "constant": true,
      "inputs": [],
      "name": "minimumBet",
      "outputs": [
        {
          "name": "",
          "type": "uint256"
        }
      ],
      "payable": false,
      "stateMutability": "view",
      "type": "function"
    },
    {
      "constant": true,
      "inputs": [],
      "name": "maxAmountOfBets",
      "outputs": [
        {
          "name": "",
          "type": "uint256"
        }
      ],
      "payable": false,
      "stateMutability": "view",
      "type": "function"
    },
    {
      "constant": true,
      "inputs": [
        {
          "name": "",
          "type": "uint256"
        }
      ],
      "name": "players",
      "outputs": [
        {
          "name": "",
          "type": "address"
        }
      ],
      "payable": false,
      "stateMutability": "view",
      "type": "function"
    },
    {
      "inputs": [],
      "payable": false,
      "stateMutability": "nonpayable",
      "type": "constructor"
    }
  ],
  "bytecode": "0x608060405260016000556103e860045534801561001b57600080fd5b50655af3107a40006000819055506102a5806100386000396000f3fe608060405234801561001057600080fd5b506004361061007d5760003560e01c8063c2b5a5041161005b578063c2b5a50414610125578063c38a8afd14610143578063e08a96cd14610161578063f71d96cb1461017f5761007d565b80632ca8c6d3146100825780634b114691146100a05780637863117e14610107575b600080fd5b61008a6101ed565b6040518082815260200191505060405180910390f35b6100e2600480360360208110156100b657600080fd5b81019080803573ffffffffffffffffffffffffffffffffffffffff1690602001909291905050506101f3565b604051808381526020018261ffff1661ffff1681526020019250505060405180910390f35b61010f610225565b6040518082815260200191505060405180910390f35b61012d61022b565b6040518082815260200191505060405180910390f35b61014b610231565b6040518082815260200191505060405180910390f35b610169610237565b6040518082815260200191505060405180910390f35b6101ab6004803603602081101561019557600080fd5b810190808035906020019092919050505061023d565b604051808273ffffffffffffffffffffffffffffffffffffffff1673ffffffffffffffffffffffffffffffffffffffff16815260200191505060405180910390f35b60035481565b60066020528060005260406000206000915090508060000154908060010160009054906101000a900461ffff16905082565b60015481565b60025481565b60005481565b60045481565b6005818154811061024a57fe5b906000526020600020016000915054906101000a900473ffffffffffffffffffffffffffffffffffffffff168156fea165627a7a72305820e9b52828b0fb44f605a49b4f469328742110dd5c21acdd75cf28afd2dbfc771c0029",
  "source": "pragma solidity >=0.4.25 <0.6.0;\r\n\r\nimport \"./ConvertLib.sol\";\r\n\r\ncontract Paris{\r\n\r\n    uint256 public minimumBet = 1;\r\n    uint256 public totalBetOne;\r\n    uint256 public totalBetTwo;\r\n    uint256 public numberOfBets;\r\n    uint256 public maxAmountOfBets = 1000;\r\n\r\n    address payable[] public players;\r\n\r\n    struct Parieur {\r\n        uint256 amountBet;\r\n        uint16 teamSelected;\r\n    }\r\n//    mapping (address => uint) balances;\r\n    // Address of the player and => the user info\r\n    mapping(address => Parieur) public playerInfo;\r\n\r\n    constructor() public {\r\n        minimumBet = 100000000000000;\r\n    }\r\n//\r\n//    event Transfer(address indexed _from, address indexed _to, uint256 _value);\r\n//\r\n//\r\n//    constructor() public {\r\n//        balances[tx.origin] = 10000;\r\n//    }\r\n//\r\n//    function sendCoin(address receiver, uint amount) public returns(bool sufficient) {\r\n//        if (balances[msg.sender] < amount) return false;\r\n//        balances[msg.sender] -= amount;\r\n//        balances[receiver] += amount;\r\n//        emit Transfer(msg.sender, receiver, amount);\r\n//        return true;\r\n//    }\r\n//    //testCommit\r\n//    function getBalanceInEth(address addr) public view returns(uint){\r\n//        return ConvertLib.convert(getBalance(addr),2);\r\n//    }\r\n//\r\n//    function getBalance(address addr) public view returns(uint) {\r\n//        return balances[addr];\r\n//    }\r\n}\r\n",
  "sourcePath": "C:/Users/melan/Documents/Projects_Truffle/WikinomiePari2019/MetaCoinPari/contracts/Paris.sol",
  "compiler": {
    "name": "solc",
    "version": "0.5.8+commit.23d335f2.Emscripten.clang"
  },
  "schemaVersion": "3.0.10",
  "updatedAt": "2019-06-06T09:12:54.721Z",
  "devdoc": {
    "methods": {}
  },
  "userdoc": {
    "methods": {}
  }
}