{
  "contractName": "Paris",
  "abi": [
    {
      "constant": true,
      "inputs": [],
      "name": "numberOfBets",
      "outputs": [
        {
          "name": "",
          "type": "uint256"
        }
      ],
      "payable": false,
      "stateMutability": "view",
      "type": "function"
    },
    {
      "constant": true,
      "inputs": [
        {
          "name": "",
          "type": "address"
        }
      ],
      "name": "playerInfo",
      "outputs": [
        {
          "name": "amountBet",
          "type": "uint256"
        },
        {
          "name": "teamSelected",
          "type": "uint16"
        }
      ],
      "payable": false,
      "stateMutability": "view",
      "type": "function"
    },
    {
      "constant": true,
      "inputs": [
        {
          "name": "",
          "type": "uint256"
        }
      ],
      "name": "parieurs",
      "outputs": [
        {
          "name": "",
          "type": "address"
        }
      ],
      "payable": false,
      "stateMutability": "view",
      "type": "function"
    },
    {
      "constant": true,
      "inputs": [],
      "name": "totalBetOne",
      "outputs": [
        {
          "name": "",
          "type": "uint256"
        }
      ],
      "payable": false,
      "stateMutability": "view",
      "type": "function"
    },
    {
      "constant": true,
      "inputs": [],
      "name": "totalBetTwo",
      "outputs": [
        {
          "name": "",
          "type": "uint256"
        }
      ],
      "payable": false,
      "stateMutability": "view",
      "type": "function"
    },
    {
      "constant": true,
      "inputs": [],
      "name": "minimumBet",
      "outputs": [
        {
          "name": "",
          "type": "uint256"
        }
      ],
      "payable": false,
      "stateMutability": "view",
      "type": "function"
    },
    {
      "constant": true,
      "inputs": [],
      "name": "maxAmountOfBets",
      "outputs": [
        {
          "name": "",
          "type": "uint256"
        }
      ],
      "payable": false,
      "stateMutability": "view",
      "type": "function"
    },
    {
      "inputs": [],
      "payable": false,
      "stateMutability": "nonpayable",
      "type": "constructor"
    },
    {
      "constant": true,
      "inputs": [
        {
          "name": "parieur",
          "type": "address"
        }
      ],
      "name": "checkParieurExists",
      "outputs": [
        {
          "name": "",
          "type": "bool"
        }
      ],
      "payable": false,
      "stateMutability": "view",
      "type": "function"
    },
    {
      "constant": false,
      "inputs": [
        {
          "name": "_teamSelected",
          "type": "uint8"
        }
      ],
      "name": "makeBet",
      "outputs": [],
      "payable": true,
      "stateMutability": "payable",
      "type": "function"
    },
    {
      "constant": false,
      "inputs": [
        {
          "name": "teamWinner",
          "type": "uint16"
        }
      ],
      "name": "distributePrizes",
      "outputs": [],
      "payable": false,
      "stateMutability": "nonpayable",
      "type": "function"
    },
    {
      "constant": true,
      "inputs": [],
      "name": "AmountOne",
      "outputs": [
        {
          "name": "",
          "type": "uint256"
        }
      ],
      "payable": false,
      "stateMutability": "view",
      "type": "function"
    },
    {
      "constant": true,
      "inputs": [],
      "name": "AmountTwo",
      "outputs": [
        {
          "name": "",
          "type": "uint256"
        }
      ],
      "payable": false,
      "stateMutability": "view",
      "type": "function"
    }
  ],
  "bytecode": "0x60806040526103e860045534801561001657600080fd5b50655af3107a40006000819055506109f6806100336000396000f3fe6080604052600436106100a75760003560e01c80636573359211610064578063657335921461028b5780637863117e146102b65780637904f688146102e1578063c2b5a50414610320578063c38a8afd1461034b578063e08a96cd14610376576100a7565b8063043336bf146100ac5780632ca8c6d3146100dd5780633e68110d146101085780634996d51d146101715780634b1146911461019c578063526c9c8314610210575b600080fd5b6100db600480360360208110156100c257600080fd5b81019080803560ff1690602001909291905050506103a1565b005b3480156100e957600080fd5b506100f2610505565b6040518082815260200191505060405180910390f35b34801561011457600080fd5b506101576004803603602081101561012b57600080fd5b81019080803573ffffffffffffffffffffffffffffffffffffffff16906020019092919050505061050b565b604051808215151515815260200191505060405180910390f35b34801561017d57600080fd5b506101866105ad565b6040518082815260200191505060405180910390f35b3480156101a857600080fd5b506101eb600480360360208110156101bf57600080fd5b81019080803573ffffffffffffffffffffffffffffffffffffffff1690602001909291905050506105b7565b604051808381526020018261ffff1661ffff1681526020019250505060405180910390f35b34801561021c57600080fd5b506102496004803603602081101561023357600080fd5b81019080803590602001909291905050506105e9565b604051808273ffffffffffffffffffffffffffffffffffffffff1673ffffffffffffffffffffffffffffffffffffffff16815260200191505060405180910390f35b34801561029757600080fd5b506102a0610625565b6040518082815260200191505060405180910390f35b3480156102c257600080fd5b506102cb61062f565b6040518082815260200191505060405180910390f35b3480156102ed57600080fd5b5061031e6004803603602081101561030457600080fd5b81019080803561ffff169060200190929190505050610635565b005b34801561032c57600080fd5b50610335610943565b6040518082815260200191505060405180910390f35b34801561035757600080fd5b50610360610949565b6040518082815260200191505060405180910390f35b34801561038257600080fd5b5061038b61094f565b6040518082815260200191505060405180910390f35b6103aa3361050b565b156103b457600080fd5b6000543410156103c357600080fd5b34600660003373ffffffffffffffffffffffffffffffffffffffff1673ffffffffffffffffffffffffffffffffffffffff168152602001908152602001600020600001819055508060ff16600660003373ffffffffffffffffffffffffffffffffffffffff1673ffffffffffffffffffffffffffffffffffffffff16815260200190815260200160002060010160006101000a81548161ffff021916908361ffff16021790555060053390806001815401808255809150509060018203906000526020600020016000909192909190916101000a81548173ffffffffffffffffffffffffffffffffffffffff021916908373ffffffffffffffffffffffffffffffffffffffff1602179055505060018160ff1614156104f15734600160008282540192505081905550610502565b346002600082825401925050819055505b50565b60035481565b600080600090505b6005805490508110156105a2578273ffffffffffffffffffffffffffffffffffffffff166005828154811061054457fe5b9060005260206000200160009054906101000a900473ffffffffffffffffffffffffffffffffffffffff1673ffffffffffffffffffffffffffffffffffffffff1614156105955760019150506105a8565b8080600101915050610513565b50600090505b919050565b6000600154905090565b60066020528060005260406000206000915090508060000154908060010160009054906101000a900461ffff16905082565b600581815481106105f657fe5b906000526020600020016000915054906101000a900473ffffffffffffffffffffffffffffffffffffffff1681565b6000600254905090565b60015481565b61063d610955565b600080905060008090506000809050600080600080600090505b600580549050811015610759576005818154811061067157fe5b9060005260206000200160009054906101000a900473ffffffffffffffffffffffffffffffffffffffff1691508861ffff16600660008473ffffffffffffffffffffffffffffffffffffffff1673ffffffffffffffffffffffffffffffffffffffff16815260200190815260200160002060010160009054906101000a900461ffff1661ffff16141561074c578188886103e8811061070c57fe5b602002019073ffffffffffffffffffffffffffffffffffffffff16908173ffffffffffffffffffffffffffffffffffffffff168152505086806001019750505b8080600101915050610657565b5060018861ffff1614156107765760025494506001549350610781565b600154945060025493505b60008090505b868110156108b157600073ffffffffffffffffffffffffffffffffffffffff1688826103e881106107b457fe5b602002015173ffffffffffffffffffffffffffffffffffffffff16146107e95787816103e881106107e157fe5b602002015193505b600660008573ffffffffffffffffffffffffffffffffffffffff1673ffffffffffffffffffffffffffffffffffffffff16815260200190815260200160002060000154925087816103e8811061083b57fe5b602002015173ffffffffffffffffffffffffffffffffffffffff166108fc612710876127108a028161086957fe5b046127100186028161087757fe5b049081150290604051600060405180830381858888f193505050501580156108a3573d6000803e3d6000fd5b508080600101915050610787565b50600660008273ffffffffffffffffffffffffffffffffffffffff1673ffffffffffffffffffffffffffffffffffffffff1681526020019081526020016000206000808201600090556001820160006101000a81549061ffff0219169055505060006005816109209190610979565b506000945060009350600060018190555060006002819055505050505050505050565b60025481565b60005481565b60045481565b60405180617d0001604052806103e890602082028038833980820191505090505090565b8154818355818111156109a05781836000526020600020918201910161099f91906109a5565b5b505050565b6109c791905b808211156109c35760008160009055506001016109ab565b5090565b9056fea165627a7a7230582016b461af0f9ef084c275fcbbf20108defab88192c692e61a3a8ebe09f71d8ba00029",
  "source": "pragma solidity >=0.4.25 <0.6.0;\r\n\r\n\r\ncontract Paris{\r\n\r\n    uint256 public minimumBet;\r\n    uint256 public totalBetOne;\r\n    uint256 public totalBetTwo;\r\n    uint256 public numberOfBets;\r\n    uint256 public maxAmountOfBets = 1000;\r\n\r\n    address payable[] public parieurs;\r\n\r\n    struct Parieur {\r\n        uint256 amountBet;\r\n        uint16 teamSelected;\r\n    }\r\n//    mapping (address => uint) balances;\r\n    // Address of the player and => the user info\r\n    mapping(address => Parieur) public playerInfo;\r\n\r\n    constructor() public {\r\n        minimumBet = 100000000000000;\r\n    }\r\n\r\n    function checkParieurExists(address parieur) public view returns(bool){\r\n        for(uint256 i = 0; i < parieurs.length; i++){\r\n            if(parieurs[i] == parieur) return true;\r\n        }\r\n        return false;\r\n    }\r\n\r\n    function makeBet(uint8 _teamSelected) public payable {\r\n        //The first require is used to check if the player already exist\r\n        require(!checkParieurExists(msg.sender));\r\n        //The second one is used to see if the value sended by the player is\r\n        //Higher than the minum value\r\n        require(msg.value >= minimumBet);\r\n\r\n        //We set the player informations : amount of the bet and selected team\r\n        playerInfo[msg.sender].amountBet = msg.value;\r\n        playerInfo[msg.sender].teamSelected = _teamSelected;\r\n\r\n        //then we add the address of the player to the players array\r\n        parieurs.push(msg.sender);\r\n\r\n        //at the end, we increment the stakes of the team selected with the player bet\r\n        if ( _teamSelected == 1){\r\n            totalBetOne += msg.value;\r\n        }\r\n        else{\r\n            totalBetTwo += msg.value;\r\n        }\r\n    }\r\n\r\n    function distributePrizes(uint16 teamWinner) public {\r\n        address payable[1000] memory winners;\r\n        //We have to create a temporary in memory array with fixed size\r\n        //Let's choose 1000\r\n        uint256 count = 0; // This is the count for the array of winners\r\n        uint256 PerdantPari = 0; //This will take the value of all losers bet\r\n        uint256 GagnantPari = 0; //This will take the value of all winners bet\r\n        address add;\r\n        uint256 bet;\r\n        address payable playerAddress;\r\n        //We loop through the player array to check who selected the winner team\r\n        for(uint256 i = 0; i < parieurs.length; i++){\r\n            playerAddress = parieurs[i];\r\n            //If the player selected the winner team\r\n            //We add his address to the winners array\r\n            if(playerInfo[playerAddress].teamSelected == teamWinner){\r\n                winners[count] = playerAddress;\r\n                count++;\r\n            }\r\n        }\r\n        //We define which bet sum is the Loser one and which one is the winner\r\n        if ( teamWinner == 1){\r\n            PerdantPari = totalBetTwo;\r\n            GagnantPari = totalBetOne;\r\n        }\r\n        else{\r\n            PerdantPari = totalBetOne;\r\n            GagnantPari = totalBetTwo;\r\n        }\r\n        //We loop through the array of winners, to give ethers to the winners\r\n        for(uint256 j = 0; j < count; j++){\r\n            // Check that the address in this fixed array is not empty\r\n            if(winners[j] != address(0))\r\n                add = winners[j];\r\n            bet = playerInfo[add].amountBet;\r\n            //Transfer the money to the user\r\n            winners[j].transfer((bet*(10000+(PerdantPari*10000/GagnantPari)))/10000 );\r\n        }\r\n\r\n        delete playerInfo[playerAddress]; // Delete all the players\r\n        parieurs.length = 0; // Delete all the players array\r\n        PerdantPari = 0; //reinitialize the bets\r\n        GagnantPari = 0;\r\n        totalBetOne = 0;\r\n        totalBetTwo = 0;\r\n    }\r\n\r\n    function AmountOne() public view returns(uint256){\r\n        return totalBetOne;\r\n    }\r\n\r\n    function AmountTwo() public view returns(uint256){\r\n        return totalBetTwo;\r\n    }\r\n\r\n}\r\n",
  "sourcePath": "C:/Users/melan/Documents/Projects_Truffle/wikinomiepari2019/metacoinpari/contracts/Paris.sol",
  "compiler": {
    "name": "solc",
    "version": "0.5.8+commit.23d335f2.Emscripten.clang"
  },
  "schemaVersion": "3.0.10",
  "updatedAt": "2019-06-09T07:45:55.956Z",
  "devdoc": {
    "methods": {}
  },
  "userdoc": {
    "methods": {}
  }
}