{
  "contractName": "Paris",
  "abi": [
    {
      "constant": true,
      "inputs": [],
      "name": "numberOfBets",
      "outputs": [
        {
          "name": "",
          "type": "uint256"
        }
      ],
      "payable": false,
      "stateMutability": "view",
      "type": "function"
    },
    {
      "constant": true,
      "inputs": [
        {
          "name": "",
          "type": "address"
        }
      ],
      "name": "playerInfo",
      "outputs": [
        {
          "name": "amountBet",
          "type": "uint256"
        },
        {
          "name": "teamSelected",
          "type": "uint16"
        }
      ],
      "payable": false,
      "stateMutability": "view",
      "type": "function"
    },
    {
      "constant": true,
      "inputs": [],
      "name": "totalBetOne",
      "outputs": [
        {
          "name": "",
          "type": "uint256"
        }
      ],
      "payable": false,
      "stateMutability": "view",
      "type": "function"
    },
    {
      "constant": true,
      "inputs": [],
      "name": "totalBetTwo",
      "outputs": [
        {
          "name": "",
          "type": "uint256"
        }
      ],
      "payable": false,
      "stateMutability": "view",
      "type": "function"
    },
    {
      "constant": true,
      "inputs": [],
      "name": "maxAmountOfBets",
      "outputs": [
        {
          "name": "",
          "type": "uint256"
        }
      ],
      "payable": false,
      "stateMutability": "view",
      "type": "function"
    },
    {
      "constant": true,
      "inputs": [
        {
          "name": "",
          "type": "uint256"
        }
      ],
      "name": "players",
      "outputs": [
        {
          "name": "",
          "type": "address"
        }
      ],
      "payable": false,
      "stateMutability": "view",
      "type": "function"
    }
  ],
  "bytecode": "0x6080604052600080556103e860045534801561001a57600080fd5b506102668061002a6000396000f3fe608060405234801561001057600080fd5b50600436106100625760003560e01c80632ca8c6d3146100675780634b114691146100855780637863117e146100ec578063c2b5a5041461010a578063e08a96cd14610128578063f71d96cb14610146575b600080fd5b61006f6101b4565b6040518082815260200191505060405180910390f35b6100c76004803603602081101561009b57600080fd5b81019080803573ffffffffffffffffffffffffffffffffffffffff1690602001909291905050506101ba565b604051808381526020018261ffff1661ffff1681526020019250505060405180910390f35b6100f46101ec565b6040518082815260200191505060405180910390f35b6101126101f2565b6040518082815260200191505060405180910390f35b6101306101f8565b6040518082815260200191505060405180910390f35b6101726004803603602081101561015c57600080fd5b81019080803590602001909291905050506101fe565b604051808273ffffffffffffffffffffffffffffffffffffffff1673ffffffffffffffffffffffffffffffffffffffff16815260200191505060405180910390f35b60035481565b60066020528060005260406000206000915090508060000154908060010160009054906101000a900461ffff16905082565b60015481565b60025481565b60045481565b6005818154811061020b57fe5b906000526020600020016000915054906101000a900473ffffffffffffffffffffffffffffffffffffffff168156fea165627a7a7230582070e1fe655fbc1808c761e5f5fca0a06c4d6833d6a27b354747f2a164c2857bb20029",
  "source": "pragma solidity >=0.4.25 <0.6.0;\r\n\r\ncontract Paris{\r\n\r\n\r\n    uint256 minimumBet = 0;\r\n    uint256 public totalBetOne;\r\n    uint256 public totalBetTwo;\r\n    uint256 public numberOfBets;\r\n    uint256 public maxAmountOfBets = 1000;\r\n    address payable[] public players;\r\n\r\n    struct Player{\r\n        uint256 amountBet;\r\n        uint16 teamSelected;\r\n    }\r\n\r\n    //Adress of the player and => the user info\r\n    mapping(address => Player) public playerInfo;\r\n\r\n\r\n\r\n\r\n\r\n}\r\n",
  "sourcePath": "C:/Users/melan/Documents/Projects_Truffle/WikinomiePari2019/MetaCoinPari/contracts/Paris.sol",
  "compiler": {
    "name": "solc",
    "version": "0.5.8+commit.23d335f2.Emscripten.clang"
  },
  "schemaVersion": "3.0.10",
  "updatedAt": "2019-06-05T20:40:26.404Z",
  "devdoc": {
    "methods": {}
  },
  "userdoc": {
    "methods": {}
  }
}